:100000006CC00000AFC10000D4C100008DC0000072
:100010008BC0000089C0000087C0000016C500002A
:1000200083C0000081C000007FC000007DC00000D0
:100030007BC0000070C5000077C0000075C00000E4
:10004000DFC1000071C000001CC400004CC40000EF
:100050006BC0000069C0000067C0000065C0000000
:1000600063C0000061C0000005A84CCDB2D44EB9F9
:100070003836A9020C50B9918688083CA6AAAA2A4B
:10008000BE000000803F00000008000201000003E5
:100090000407000000000000000001020408102016
:1000A000408001020408102001020408102004040A
:1000B0000404040404040202020202020303030310
:1000C000030300000000250028002B0000000000B2
:1000D000240027002A000200980411241FBECFEF3D
:1000E000D8E0DEBFCDBF11E0A0E0B1E0ECE7F2E187
:1000F00002C005900D92A633B107D9F721E0A6E31F
:10010000B1E001C01D92A73FB207E1F710E0CDE6D4
:10011000D0E004C02197FE010E943609CC36D107F9
:10012000C9F75BD50C943C096BCF611101C016C2B5
:100130006130E9F362E0FBCF662311F061E04AC26F
:1001400060E0FDCFCF92DF92EF92FF926B017C01D6
:100150009F7720E030E040E859E5EDD587FF26C0E5
:1001600020E030E040E05FE3C701B60181D787FDC2
:100170000CC020E030E040E05FE3C701B60164D589
:10018000FF90EF90DF90CF90ABC620E030E040E0F2
:100190005FEBC701B6016CD718167CF420E030E0A5
:1001A000A901C701B60168D76B017C01C701B6017F
:1001B000FF90EF90DF90CF90089520E030E040E096
:1001C0005FE3C701B6013FD5FF90EF90DF90CF907E
:1001D0009FC5CF92DF92EF92FF926091F0017091F4
:1001E000F1018091F2019091F3013FD62091180125
:1001F0003091190140911A0150911B0125D59B01A5
:10020000AC0122D52BED3FE049E450E435D72091F5
:1002100014013091150140911601509117018FD5AD
:100220008ED720910C0130910D0140910E0150911B
:100230000F0122D72091100130911101409112013C
:100240005091130101D5209100013091010140919D
:100250000201509103010CD787FD4EC06091080147
:100260007091090180910A0190910B016BDF6B0184
:100270007C0120E030E040E853E45DD56FEF87FF7C
:100280000CC020E030E0A901C701B601F1D660E062
:1002900087FD03C0C701B601BAD58DE04DDF60917F
:1002A000F0017091F1018091F2019091F3016F5F83
:1002B0007F4F8F4F9F4F6093F0017093F1018093B8
:1002C000F2019093F301D1D52091140130911501E1
:1002D00040911601509117012ED5811108C010923E
:1002E000F0011092F1011092F2011092F301FF90CF
:1002F000EF90DF90CF900895609104017091050117
:100300008091060190910701B1CF1F93CF93DF93A6
:100310001092F6011092F501C8EED1E08DE0FE01D9
:1003200011928A95E9F711E01C8781E090E0A0E046
:10033000B0E089839A83AB83BC8361E08DE0F5DE16
:100340001D83188619861A861B86DF91CF911F910F
:1003500008958091E801811103C081E08093E80154
:10036000089508951F920F920FB60F9211242F93A4
:100370003F934F935F936F937F938F939F93AF932D
:10038000BF93EF93FF93E0911C01F0911D0109953C
:10039000FF91EF91BF91AF919F918F917F916F915D
:1003A0005F914F913F912F910F900FBE0F901F9033
:1003B00018951F920F920FB60F9211242F933F930F
:1003C0004F935F936F937F938F939F93AF93BF935D
:1003D000EF93FF93E0911E01F0911F010995FF91AA
:1003E000EF91BF91AF919F918F917F916F915F91AD
:1003F0004F913F912F910F900FBE0F901F90189526
:100400001F920F920FB60F9211242F933F938F9349
:100410009F93AF93BF938091370190913801A09142
:100420003901B0913A013091360123E0230F2D3785
:1004300058F50196A11DB11D209336018093370117
:1004400090933801A0933901B0933A0180913B0118
:1004500090913C01A0913D01B0913E010196A11DFA
:10046000B11D80933B0190933C01A0933D01B0935B
:100470003E01BF91AF919F918F913F912F910F902E
:100480000FBE0F901F90189526E8230F0296A11D0E
:10049000B11DD2CF789484B5826084BD84B581606B
:1004A00084BD85B5826085BD85B5816085BDEEE67C
:1004B000F0E0808181608083E1E8F0E0108280815B
:1004C00082608083808181608083E0E8F0E08081C9
:1004D00081608083E1EBF0E0808184608083E0EBE9
:1004E000F0E0808181608083EAE7F0E080818460D1
:1004F000808380818260808380818160808380812D
:10050000806880831092C1000895833081F028F4C0
:10051000813099F08230A9F008958730A9F08830B1
:10052000C9F08430B1F4809180008F7D03C0809148
:1005300080008F7780938000089584B58F7784BD85
:10054000089584B58F7DFBCF8091B0008F77809325
:10055000B00008958091B0008F7DF9CFCF93DF93E5
:1005600090E0FC01E656FF4F249182559F4FFC011D
:1005700084918823C9F090E0880F991FFC01E4530F
:10058000FF4FA591B491FC01EE53FF4FC591D4915B
:1005900061110DC09FB7F8948C91209582238C93A4
:1005A0008881282328839FBFDF91CF9108956230EF
:1005B00051F49FB7F8943C91822F809583238C93BC
:1005C000E8812E2BEFCF8FB7F894EC912E2B2C9344
:1005D0008FBFEACF1F93CF93DF93282F30E0F9012D
:1005E000EA57FF4F8491F901E656FF4FD491F90184
:1005F000E255FF4FC491CC23A1F0162F811185DF66
:10060000EC2FF0E0EE0FFF1FEE53FF4FA591B491DA
:100610008FB7F894EC91111108C0D095DE23DC93CC
:100620008FBFDF91CF911F910895DE2BF8CFFC0192
:10063000918D228D892F90E0805C9F4F821B9109C4
:100640008F7399270895FC01918D828D981731F051
:10065000828DE80FF11D858D90E008958FEF9FEF5B
:100660000895FC01918D828D981761F0A28DAE0FD7
:10067000BF2FB11D5D968C91928D9F5F9F73928F5E
:1006800090E008958FEF9FEF0895FC01538D448D06
:10069000252F30E0842F90E0821B930B541710F02D
:1006A000CF96089501970895FC01A48DA80FB92F46
:1006B000B11DA35ABF4F2C91848D90E001968F738A
:1006C0009927848FA689B7892C93A089B1898C91A9
:1006D000837080648C93938D848D981306C00288F8
:1006E000F389E02D80818F7D80830895CF93DF9300
:1006F000EC01888D8823B1F0AA89BB89E889F98942
:100700008C9185FD03C0808186FD0CC00FB607FC6F
:10071000F7CF8C9185FFF2CF808185FFEDCFCE01A1
:10072000C3DFEACFDF91CF910895EF92FF920F934D
:100730001F93CF93DF93EC0181E0888F9B8D8C8D8D
:1007400098131AC0E889F989808185FF15C09FB781
:10075000F894EE89FF896083E889F9898081837044
:10076000806480839FBF81E090E0DF91CF911F91F3
:100770000F91FF90EF900895F62E0B8D10E00F5F14
:100780001F4F0F731127E02E8C8D8E110BC00FB6EB
:1007900007FCFACFE889F989808185FFF5CFCE0182
:1007A00083DFF2CFEB8DEC0FFD2FF11DE35AFF4FEE
:1007B000F0829FB7F8940B8FEA89FB898081806271
:1007C000D0CFCF92DF92EF92FF921F93CF93DF9320
:1007D000EC016A017B01122FE889F98982E08083AC
:1007E000C11481EED806E104F10499F060E079E0EB
:1007F0008DE390E0A701960117D5215031094109F9
:1008000051095695479537952795211580E1380769
:1008100090F0E889F989108260E874E88EE190E050
:10082000A701960101D52150310941095109569579
:10083000479537952795EC85FD853083EE85FF85B7
:100840002083188EEC89FD891083EA89FB898081D9
:1008500080618083EA89FB89808188608083EA895E
:10086000FB89808180688083EA89FB8980818F7D14
:100870008083DF91CF911F91FF90EF90DF90CF9019
:1008800008951F920F920FB60F9211242F938F93FA
:100890009F93EF93FF93E0914F01F091500180817E
:1008A000E0915501F091560182FD1BC0908180912D
:1008B00058018F5F8F7320915901821741F0E091A9
:1008C0005801F0E0E15CFE4F958F80935801FF9155
:1008D000EF919F918F912F910F900FBE0F901F90CE
:1008E00018958081F4CF1F920F920FB60F921124AA
:1008F0002F933F934F935F936F937F938F939F9328
:10090000AF93BF93EF93FF938FE391E0CDDEFF9121
:10091000EF91BF91AF919F918F917F916F915F9177
:100920004F913F912F910F900FBE0F901F901895F0
:10093000EFE3F1E01382128288EE93E0A0E0B0E0F2
:1009400084839583A683B78387E291E09183808334
:1009500085EC90E09587848784EC90E09787868784
:1009600080EC90E0918B808B81EC90E0938B828B7C
:1009700082EC90E0958B848B86EC90E0978B868B55
:10098000118E128E138E148E0895AF92BF92CF9255
:10099000DF92EF92FF920F931F93CF93DF936C013F
:1009A0007B018B01040F151FEB015E01AE18BF0820
:1009B000C017D10759F06991D601ED91FC910190D2
:1009C000F081E02DC6010995892B79F7C501DF91EA
:1009D000CF911F910F91FF90EF90DF90CF90BF903C
:1009E000AF900895813039F018F0823051F00895B9
:1009F00010926E00089580916F008D7F80936F003C
:100A00000895809170008D7F8093700081E08093C5
:100A1000B0008091B100887F84608093B100109213
:100A2000B3000895CF93C82F80912001C8130BC045
:100A3000E6EDF0E084919FEF90932001D3DF60E03A
:100A40008C2FCF91C7CD8FEFF9CF1F920F920FB69A
:100A50000F9211242F933F934F935F936F937F9344
:100A60008F939F93AF93BF93EF93FF938091DF0199
:100A70009091E001A091E101B091E201892B8A2BD4
:100A80008B2BD1F19091DC01E091DD01F091DE0141
:100A90008081892780838091DF019091E001A0917E
:100AA000E101B091E201181619061A061B069CF422
:100AB0008091DF019091E001A091E101B091E2010C
:100AC0000197A109B1098093DF019093E001A09300
:100AD000E101B093E201FF91EF91BF91AF919F913E
:100AE0008F917F916F915F914F913F912F910F90D7
:100AF0000FBE0F901F9018958091200193DFEBCFD0
:100B000040E855E260E070E090E080E000C026E060
:100B10008FE391E056CE1F920F920FB60F921124E1
:100B20002F933F934F935F936F937F938F939F93F5
:100B3000AF93BF93EF93FF9386E997EE9093850071
:100B40008093840032D0FF91EF91BF91AF919F913C
:100B50008F917F916F915F914F913F912F910F9066
:100B60000FBE0F901F90189586E997EE9093850021
:100B700080938400AFE6B0E08C918E7F8C93E0E8A8
:100B8000F0E080818C7F8083E1E8F0E08081877EE7
:100B9000808380818460808380818C7F80838C913E
:100BA00081608C93089581E008958091E50191E042
:100BB000980F9093E501882349F021E030E03093CD
:100BC000E7012093E6018093E5010895789401DB25
:100BD000F8948091E5018150F6CFCF93DF93109286
:100BE000E4011092E30156DC8BDFC0912101D0912A
:100BF00022011982188289DBB7DF81E028813981DF
:100C0000232B09F080E08093E3017894789480911D
:100C1000E301811107C09DDBF89490E080E0DF9153
:100C2000CF91089581E028813981232B09F480E058
:100C30008093E4019091E40181E0911180E0809340
:100C4000E301B1DFE4CF5058BB27AA270ED0BFC1C4
:100C5000B0D130F0B5D120F031F49F3F11F41EF443
:100C6000A5C10EF4E095E7FB72C1E92FC1D180F375
:100C7000BA17620773078407950718F071F49EF599
:100C8000F0C10EF4E0950B2EBA2FA02D0B01B90187
:100C900090010C01CA01A0011124FF27591B99F0F2
:100CA000593F50F4503E68F11A16F040A22F232FFE
:100CB000342F4427585FF3CF469537952795A7954E
:100CC000F0405395C9F77EF41F16BA0B620B730BF5
:100CD000840BBAF09150A1F0FF0FBB1F661F771F66
:100CE000881FC2F70EC0BA0F621F731F841F48F41B
:100CF000879577956795B795F7959E3F08F0B3CFA1
:100D00009395880F08F09927EE0F9795879508958A
:100D100091D180F09F3740F491110EF4A3C160E0AF
:100D200070E080E89FE3089526F01B16611D711D99
:100D3000811D13C12DC1E7D008F481E008950CD0C6
:100D400046C13ED140F035D130F021F45F3F19F07B
:100D5000FEC0511187C12AC14BD198F39923C9F321
:100D60005523B1F3951B550BBB27AA2762177307B1
:100D7000840738F09F5F5F4F220F331F441FAA1F65
:100D8000A9F333D00E2E3AF0E0E830D09150504025
:100D9000E695001CCAF729D0FE2F27D0660F771FD3
:100DA000881FBB1F261737074807AB07B0E809F0B5
:100DB000BB0B802DBF01FF2793585F4F2AF09E3F4A
:100DC000510568F0C4C04EC15F3FECF3983EDCF3C0
:100DD000869577956795B795F7959F5FC9F7880FC3
:100DE000911D9695879597F90895E1E0660F771F15
:100DF000881FBB1F621773078407BA0720F0621BA6
:100E0000730B840BBA0BEE1F88F7E0950895F8D0AA
:100E100088F09F5790F0B92F9927B751A0F0D1F0E3
:100E2000660F771F881F991F1AF0BA95C9F712C06D
:100E3000B13081F016D1B1E0089513C1672F782F3A
:100E40008827B85F39F0B93FCCF3869577956795D9
:100E5000B395D9F73EF490958095709561957F4F45
:100E60008F4F9F4F0895E89409C097FB3EF49095EB
:100E70008095709561957F4F8F4F9F4F9923A9F073
:100E8000F92F96E9BB279395F69587957795679502
:100E9000B795F111F8CFFAF4BB0F11F460FF1BC046
:100EA0006F5F7F4F8F4F9F4F16C0882311F096E9D9
:100EB00011C0772321F09EE8872F762F05C0662387
:100EC00071F096E8862F70E060E02AF09A95660F40
:100ED000771F881FDAF7880F9695879597F90895F9
:100EE000A9D080F09F3740F491110EF0BBC060E0B4
:100EF00070E080E89FEB089526F41B16611D711DBC
:100F0000811D2BC045C0990F0008550FAA0BE0E8C2
:100F1000FEEF16161706E807F907C0F012161306BB
:100F2000E407F50798F0621B730B840B950B39F4FB
:100F30000A2661F0232B242B252B21F408950A2661
:100F400009F4A140A6958FEF811D811D089597F9A1
:100F50009F6780E870E060E00895882371F477234C
:100F600021F09850872B762F07C0662311F499271C
:100F70000DC09051862B70E060E02AF09A95660FC4
:100F8000771F881FDAF7880F9695879597F9089548
:100F90009F3F31F0915020F4879577956795B795ED
:100FA000880F911D9695879597F908959FEF80EC8E
:100FB000089500240A9416161706180609060895BF
:100FC00000240A9412161306140605060895092E25
:100FD0000394000C11F4882352F0BB0F40F4BF2B94
:100FE00011F460FF04C06F5F7F4F8F4F9F4F0895D4
:100FF00057FD9058440F551F59F05F3F71F04795CA
:10100000880F97FB991F61F09F3F79F087950895AE
:10101000121613061406551FF2CF4695F1DF08C0CD
:10102000161617061806991FF1CF869571056105EA
:1010300008940895E5DFA0F0BEE7B91788F4BB2750
:101040009F3860F41616B11D672F782F8827985F98
:10105000F7CF869577956795B11D93959639C8F327
:101060000895E894BB2766277727CB0197F9089561
:101070004ADF08F48FEF08950BD0A9CF9ADF28F04C
:101080009FDF18F0952309F062CF90CF1124EACFAB
:10109000AFDFA0F3959FD1F3950F50E0551F629FEE
:1010A000F001729FBB27F00DB11D639FAA27F00DC1
:1010B000B11DAA1F649F6627B00DA11D661F829FE8
:1010C0002227B00DA11D621F739FB00DA11D621FCD
:1010D000839FA00D611D221F749F3327A00D611DEA
:1010E000231F849F600D211D822F762F6A2F1124CC
:1010F0009F5750408AF0E1F088234AF0EE0FFF1F1F
:10110000BB1F661F771F881F91505040A9F79E3F55
:10111000510570F01CCFA6CF5F3FECF3983EDCF397
:10112000869577956795B795F795E7959F5FC1F792
:10113000FE2B880F911D9695879597F908959F939B
:1011400005D00F9007FCEE5F28C030CF59DFE8F3E1
:10115000E894E0E0BB279F57F0F02AED3FE049EC30
:1011600006C0EE0FBB0F661F771F881F28F0B23A2C
:1011700062077307840728F0B25A620B730B840B63
:10118000E3959A9572F7803830F49A95BB0F661FF5
:10119000771F881FD2F79048FDCEEF93E0FF06C07F
:1011A000A2EA2AED3FE049EC5FEB5FDD10DF0F9034
:1011B000039401FC9058E8E6F0E000C09F938F9301
:1011C0007F936F93FF93EF939B01AC0155DFEF91FA
:1011D000FF9105D02F913F914F915F914DCFDF93BC
:1011E000CF931F930F93FF92EF92DF927B018C01BD
:1011F000689405C0DA2EEF014BDFFE01E894A5915B
:101200002591359145915591AEF3EF012EDDFE010B
:101210009701A801DA9479F7DF90EF90FF900F9192
:101220001F91CF91DF910895A1E21A2EAA1BBB1B3B
:10123000FD010DC0AA1FBB1FEE1FFF1FA217B307A2
:10124000E407F50720F0A21BB30BE40BF50B661FB8
:10125000771F881F991F1A9469F76095709580957C
:1012600090959B01AC01BD01CF010895EE0FFF1FCA
:0C1270000590F491E02D0994F894FFCF54
:10127C0000004040000000000000803F0000A04043
:10128C00000000000000204100000000B101B1018D
:10129C00FFF501000000009503C504450376031714
:0612AC00033103230300DF
:00000001FF
